:100000000C942D060C944A060C944A060C94712EFE
:100010000C944A060C944A060C944A060C944A0620
:100020000C944A060C944A060C94711B0C942D1BDC
:100030000C94C6270C944A060C944A060C944A0663
:100040000C944A060C944A060C944A060C944A06F0
:100050000C944A060C944A1C0C944A060C944A06CA
:100060000C944A060C944A060C944A060C944A06D0
:100070000C944A060C944A060C944A060C944A06C0
:100080000C944A060C944A060C944A060C944A06B0
:100090000C944A060C944A060C944A060C944A06A0
:1000A0000C944A060C944A060C944A060102E1019B
:1000B00001340103E1000102E10101250103E10036
:1000C0000102E10101320103E1000102E101012627
:1000D0000103E1000101320001013400010155007A
:1000E0000102E10101240103E1004C001E081F0888
:1000F000200821082208407E08570A570B57130092
:100100001C002B2204001200080018440C00000000
:10011000095714000D000E001B0000000000E30052
:100120002C412924045746000000260825082408ED
:1001300023082F220F000B0006000A0009002A00E6
:1001400016000257170015000700E7001D001900F0
:100150001A00100005000000000006572842362152
:10016000055701003A003B003C003D003E00010005
:10017000000000004B7E4C7E0000010000000000EB
:10018000497E4A7E000001000000000000000000DF
:10019000000000000100010001000100000000005B
:1001A00043004200410040003F00A9000000000061
:1001B000000000000000A8000E570D570C57005714
:1001C0000757AA0000000000000000000000000027
:1001D000010001000100010000000000000000001B
:1001E00000000000000000004A004B004600000034
:1001F000000000000F571057115701571257000009
:1002000000000000000000000000000000000000EE
:100210000000000000002A000000467E457E00002D
:100220000000487E477E447E437E427E417E000041
:100230004F0052005100500000000000000000007C
:1002400000000000000000000000000000000000AE
:100250000000207821780000000000000000007CF1
:1002600000000000000000002078017C0000000079
:10027000000000000000000000000000000000007E
:10028000000000000000000000000000000000006E
:1002900000000000000000000000007C00000000E2
:1002A000000000000000017C0000000000000000D1
:1002B000000000000000000000000000000000003E
:1002C000000000000000000000000000000000002E
:1002D000000000000000000000000000000000001E
:1002E000000000000000000000000000000000000E
:1002F00000000000000000000000000000000000FE
:1003000001000000000000000000000000000000EC
:10031000000000000000260025002400000001006D
:100320000000230022002100270000000000200020
:100330001F001E000000000000000000010000007F
:10034000000000DA0281FFD9F1DB20A4A62EAF0065
:10035000A0C0D30000A1C8D30000AED580A81F4024
:100360008D1420001E0F057F3F1F64321464321469
:10037000783C1E1E140A0500010101010101010162
:100380000102020202020202020203030303030348
:100390000303040404040404040505050505060616
:1003A00006060607070707070808080809090909D4
:1003B0000A0A0A0B0B0B0C0C0C0D0D0D0E0E0E0F7A
:1003C0000F0F10101111111212131314141515160A
:1003D000161717181819191A1A1B1B1C1D1D1E1E7B
:1003E0001F202021222223242425262627282929CC
:1003F0002A2B2C2D2D2E2F303132323334353637F7
:1004000038393A3B3C3D3E3F4041424344454647F4
:1004100048494A4C4D4E4F50515354555658595ACD
:100420005B5D5E5F616264656668696B6C6D6F7071
:1004300072737577787A7B7D7E8082838587888AE0
:100440008C8E8F91939596989A9C9EA0A2A3A5A717
:10045000A9ABADAFB1B3B5B7BABCBEC0C2C4C6C913
:10046000CBCDCFD1D4D6D8DBDDDFE2E4E7E9EBEECC
:10047000F0F3F5F8FAFDFFFFAA7F55402223252669
:1004800028292A2C2D2F3032333536383A3B3D3E41
:100490004042434547494A4C4E5051535557595A8B
:1004A0005C5E6062646668696B6D6F7173757779A5
:1004B0007B7D7F81838587898A8C8E9092949698A4
:1004C0009A9C9E9FA1A3A5A7A8AAACAEAFB1B3B4B6
:1004D000B6B8B9BBBCBEBFC1C2C3C5C6C7C9CACB0B
:1004E000CCCDCED0D1D2D2D3D4D5D6D7D7D8D9D9D6
:1004F000DADADBDBDBDCDCDCDCDCDDDDDDDDDCDC3F
:10050000DCDCDCDBDBDBDADAD9D9D8D7D7D6D5D45B
:10051000D3D2D2D1D0CECDCCCBCAC9C7C6C5C3C227
:10052000C1BFBEBCBBB9B8B6B4B3B1AFAEACAAA87C
:10053000A7A5A3A19F9E9C9A98969492908E8C8A30
:1005400089878583817F7D7B79777573716F6D6B0B
:100550006968666462605E5C5A5957555351504EE3
:100560004C4A4947454342403E3D3B3A3836353395
:1005700032302F2D2C2A29282625232200AF00AE29
:1005800005010980A101850319012AB7001501267B
:10059000B700950175108100C0050C0901A1018506
:1005A0000419012AA002150126A0029501751081E7
:1005B00000C005010906A101050719E029E715009A
:1005C00025019508750181029501750881010507CE
:1005D000190029FF150026FF009506750881000502
:1005E0000819012905150025019505750191029548
:1005F0000175039101C009023B00020100A0FA0944
:10060000040000010301010009211101000122443D
:10061000000705810308000109040100010300002F
:100620000009211101000122320007058203200088
:10063000011201000200000008D8042DEB000101A6
:100640000200010E034C0069006C0079003500388F
:1006500000000010036C0069006C00690075006DFB
:100660000073000000040309040000000000003EC5
:100670005B4F5B3E003E6B4F6B3E001C3E7C3E1C66
:1006800000183C7E3C18001C577D571C001C5E7FE8
:100690005E1C0000183C180000FFE7C3E7FF0000E5
:1006A0001824180000FFE7DBE7FF0030483A060E89
:1006B00000262979292600407F05050700407F058F
:1006C000253F005A3CE73C5A007F3E1C1C080008AE
:1006D0001C1C3E7F0014227F2214005F5F005F5FBE
:1006E0000006097F017F00006689956A00606060EE
:1006F00060600094A2FFA2940008047E0408001029
:10070000207E20100008082A1C0800081C2A08085F
:10071000001E10101010000C1E0C1E0C0030383E75
:10072000383000060E3E0E060000000000000000FB
:10073000005F000000000700070000147F147F1412
:1007400000242A7F2A1200231308646200364956C7
:10075000205000000807030000001C224100000098
:1007600041221C00002A1C7F1C2A0008083E0808A1
:1007700000008070300000080808080800000060D1
:100780006000002010080402003E5149453E000070
:10079000427F4000007249494946002141494D339A
:1007A000001814127F10002745454539003C4A497E
:1007B00049310041211109070036494949360046AF
:1007C0004949291E000000140000000040340000C8
:1007D00000000814224100141414141400004122D3
:1007E0001408000201590906003E415D594E007C83
:1007F0001211127C007F49494936003E4141412295
:10080000007F4141413E007F49494941007F09093C
:100810000901003E41415173007F0808087F000034
:10082000417F4100002040413F01007F08142241E8
:10083000007F40404040007F021C027F007F040890
:10084000107F003E4141413E007F09090906003EFC
:100850004151215E007F0919294600264949493244
:100860000003017F0103003F4040403F001F204044
:10087000201F003F4038403F00631408146300030A
:1008800004780403006159494D4300007F41414110
:1008900000020408102000004141417F00040201D1
:1008A00002040040404040400000030708000020D0
:1008B00054547840007F2844443800384444442845
:1008C00000384444287F0038545454180000087EEF
:1008D0000902001824241C78007F08040478000012
:1008E000447D4000002040403D00007F102844002F
:1008F0000000417F4000007C04780478007C0804FC
:100900000478003844444438007C18242418001823
:100910002424187C007C08040408004854545424FF
:100920000004043F4424003C4040207C001C204044
:10093000201C003C4030403C004428102844004C1F
:100940009090907C004464544C4400000836410070
:10095000000000770000000041360800000201029C
:100960000402003C2623263C00000000000080809A
:100970008080000000000080E070180C1830E080DB
:10098000000010F8901030783010B8FC38100000DB
:1009900000000000F8FCF80000000000000000006B
:1009A000000000001C9C1C00000000F8FCF8000087
:1009B000000000001CFCF8C000000000000080E007
:1009C000F87C1C000000F0FCFCFC1C1C1C1C1C1C0B
:1009D0001C1C000000000000C0F0F8381C1C1C1C8F
:1009E0001C1C3CF8F0E000E0F0F0F0E0ECEEF7F377
:1009F0007020007C7C7C7E007E7E7E7F7F7F00007E
:100A000080C0E07E5B4F5BFEC00000C000DCD7DE34
:100A1000DEDED7DC00C000000000000000000000A7
:100A200000000000000000000000000000000FBCFB
:100A3000E0818181838382870C183060C000001FB1
:100A4000FE90B9FFBB91983C1811133F11000000B4
:100A500000000000FFFFFF00000000000000000099
:100A600000000000FFFFFF00000000FFFFFF00008C
:100A7000000000000000030F7FF8E080F0FC3F0F53
:100A80000100000000003F3F3F1C1C1C1C1C3C7868
:100A9000F8F0E08000000000C3E7FF7E3C38787883
:100AA0007070F8FFDF87000F1F3F7F7F7F7F7F3FE2
:100AB0001E0C001F1F1F3F003F3F3F7F7F7F003006
:100AC0007B7F7830202030787F3B0003000F7F0F42
:100AD0000F0F7F0F00030000000000000000000067
:100AE000000000000000000000183C24666341C1C3
:100AF0008180808080808081C14162386C4CC68159
:100B000081808080808081C14362361C1800000093
:100B100000000000FFFFFFC0C0C0C0C0C0C0C0C018
:100B2000800000007FFF7F000000007FFFFFC0808B
:100B3000000000E0E0C0C0C0E0F97F1F0700000037
:100B400000000000000070F0E0E0C0C0C0C0E0F0B5
:100B5000F87F3F0F0000000F3F7FF9E0E0C0C0C00A
:100B6000C0C0E0F97F3F1F0000000000000000004F
:100B70000000000000000000000000000000000075
:100B80000000000000000000000000000000000065
:100B90000000000000000000000000000000000055
:100BA0000000000000000000000000000000000045
:100BB0000000000000000000000000000000000035
:100BC000000000000000000000000000007E0F0098
:100BD000D4FFFFFFC7000000780000000000000005
:100BE000002A2B2800000000000000000000000088
:100BF0000000000029000000002C1E3420212224C7
:100C0000342627252E362D3738271E1F2021222354
:100C10002425263333362E37381F040506070809E6
:100C20000A0B0C0D0E0F10111213141516171819AC
:100C30001A1B1C1D2F3130232D350405060708090A
:100C40000A0B0C0D0E0F101112131415161718198C
:100C50001A1B1C1D2F3130354C0011241FBECFEF45
:100C6000DAE0DEBFCDBF28E0ACEFB3E001C01D92FB
:100C7000A531B207E1F713E0A0E0B1E0E4E0F9E666
:100C800002C005900D92AC3FB107D9F70E94ED2745
:100C90000C942C340C940000482F2091060690915F
:100CA000CD0557E0291302C080E0089530E0529F3F
:100CB000F001539FF00D1124E253FA4F8181681324
:100CC00006C08081481303C085818111EECF2F5F5C
:100CD0003F4F2770E7CFFC01AC014B5F5F4F8FEFB9
:100CE00091E32191822728E030E087FF09C0880F37
:100CF000892721503109C9F7E417F50791F70895BD
:100D0000880FF7CFE8EDF0E080818E7F808310922E
:100D1000E2001092DA001092E100A0EEB0E08C91B7
:100D200081608C9380818F77808319BCA7EDB0E0C0
:100D30008C918E7F8C9380818F7E80831092B605FC
:100D400008952091E4003091E50095E6A9012091F5
:100D5000EC00822F817020FF06C08091E80080FFA8
:100D600006C080E008952091E80022FD1AC080911D
:100D7000C305882389F0853089F08091EB0085FDDB
:100D80000FC02091E4003091E50042175307F9F2BB
:100D90009150E1F684E0089582E0089583E008959B
:100DA00081E008958091C50587FF13C08091E80018
:100DB00082FF06C08091E8008B778093E80004C032
:100DC0008091C3058111F2CF08958091C3058823D6
:100DD000D9F38091E80080FFF8CF8091E8008E770A
:100DE000ECCF982F9093E900242F762F50E08917AD
:100DF00031F07091EC002091ED005091F00021FD58
:100E000007C09F5F973071F78093E90081E00895F4
:100E10003091EB003E7F3093EB003091ED003D7F51
:100E20003093ED003091EB0031603093EB00709324
:100E3000EC002093ED005093F0002091EE0027FD90
:100E4000E0CF80E00895B0E0A0E0E9E2F7E00C94A4
:100E5000AB2FC8EDD0E088818F7E8883E7EDF0E08E
:100E600080818160808384E082BF81E08093B605C9
:100E700088818E7F888302EE10E0F8011082109244
:100E8000DA0081EEC82ED12CF601108288818F778E
:100E9000888388818068888388818F7D888319BC56
:100EA0001092C3051092C4051092C2051092C1059C
:100EB00090EEE92EF12CF70180818B7F8083888171
:100EC0008160888342E060E080E00E94F106F601E4
:100ED00080818E7F8083F801808181608083808122
:100EE00088608083F70180818E7F80838881806124
:100EF0008883CDB7DEB7E8E00C94C72FFC01809162
:100F0000CB059091CC0586179707A0F06115710568
:100F100029F49091E8009E779093E80090E06115A5
:100F2000710551F4911108C08091E80082FF34C02E
:100F300080E00895BC01F2CF8091C3058823C1F100
:100F40008530C1F18091E80083FD30C08091E800D8
:100F500082FDEACF8091E80080FFE1CF8091F3002D
:100F60002091F200382F6115710519F028303105F4
:100F700058F091E02830310509F090E02091E80028
:100F80002E772093E800CBCF81918093F1006150C0
:100F900071092F5F3F4FE7CF8091C305882341F050
:100FA000853041F08091E80083FFBECF81E0089555
:100FB00082E0089583E0089508950895089580914A
:100FC000B80508952FB7F8946091B2057091B305F4
:100FD0008091B4059091B5052FBF08959C01FC0147
:100FE00032969FEF80E04191461751F09F3F19F4F0
:100FF000411101C0982F8F5F8630A9F79F3F09F4F8
:101000000895290F311D97FD3A95F90162830895DE
:10101000A3E0B0E0EEE0F8E00C94B12F2091AF0532
:101020003091B00528173907A1F09093B00580934F
:10103000AF05E091AD05F091AE05309751F024E099
:1010400029839B838A830084F185E02DCE0101965C
:1010500009952396E2E00C94CD2FA3E0B0E0E3E302
:10106000F8E00C94B12F2091AB053091AC05281716
:101070003907A1F09093AC058093AB05E091AD05E5
:10108000F091AE05309751F023E029839B838A834A
:101090000084F185E02DCE01019609952396E2E0CA
:1010A0000C94CD2F8091A905882359F0E091AD05CE
:1010B000F091AE05309729F00190F081E02D09956F
:1010C000089580E008954115510511F0FA01099540
:1010D0000895FA01811101C0FB0109950895E1E12C
:1010E000F5E0118282818460828308958091970562
:1010F000982F9C7F61F48370846080939705809122
:101100009A05853B18F084EB80939A050895883AF8
:10111000B0F38370846AF1CFAF92BF92DF92EF9207
:10112000FF920F931F93CF93DF93182F062FE901A0
:10113000453B08F044EBE42FF0E0E958FC4F011187
:1011400010C0E4915E2F4E2F4983E8835A83DF91CC
:10115000CF911F910F91FF90EF90DF90BF90AF90D4
:101160000895202F30E04491D42EE42EF12C56E047
:10117000159FC0011124EFEFF0E0BF010E948D2FF9
:10118000812F90E0880F991F55E5569FD001579FFA
:10119000B00D11248A1B9B0B982F990F890F5F01AB
:1011A000A21AB30AAE9CD001AF9CB00DBE9CB00D8C
:1011B00011245B2F089F80011124012F11275F014B
:1011C000A01AB10AAE9C8001AF9C100DBE9C100D00
:1011D00011245F01A81AB108A29EC001A39E900D20
:1011E000B29E900D1124892F9927E81BF90BEE9DD3
:1011F000C001EF9D900DFE9D900D1124E92F6230EE
:101200007105A1F050F46115710509F49DCF6130AD
:10121000710581F0EB2F512F97CF6430710569F084
:1012200080F06630710509F48FCFF4CFE42F4B2F97
:10123000592F8ACFE42F412F87CFEB2F542F492FDF
:1012400083CF4B2F5D2DE12F7FCF80E00895F89461
:10125000E82FE295EF70F0E031A1282F2F7081E0A8
:1012600090E001C0880F2A95EAF7982F9095932374
:1012700091A392A1892B82A3789408950F931F9331
:101280008091A905882329F00E94E2071F910F9100
:1012900008950E94E2070091710410917204209158
:1012A000730430917404600F711F821F931FEECF7F
:1012B0009091810492FF10C041E0282F24712430C6
:1012C00009F040E031E0282F2871283009F030E0A3
:1012D000431711F02CE0822793FF10C041E0282F24
:1012E0002471243109F040E031E0282F28712831A1
:1012F00009F030E0431711F02CE08227309182048E
:1013000030FF10C051E0282F2171213009F050E04A
:1013100041E0282F2871283009F040E0541711F0DF
:1013200029E0822731FF10C041E0282F21712131AF
:1013300009F040E031E0282F2871283109F030E031
:10134000431711F029E0822794FD877E08958238A3
:101350009105B9F1B0F48133910509F47DC048F4E9
:101360008932910509F46DC08A32910509F47BC078
:1013700008958533910509F45FC08933910509F11A
:101380000895833E9105D9F138F4803E910529F105
:10139000823E910579F10895863E9105D9F1873E07
:1013A000910509F43EC0843E910541F520918204E7
:1013B00021FF24C08091810484FD19C087EE90E054
:1013C000089520918104237009F05AC0209182046D
:1013D00023FF14C089E290E008952091810420FD4C
:1013E00038C03091820430FF09C024FF43C090E030
:1013F00080E008952091810422FDF7CF0895209187
:10140000810422FD3AC03091820430FD39C024FFAE
:10141000F5CFEDCF2091810423FFF0CF24FDE7CF5E
:10142000CDCF2091810423FD2EC03091820431FF65
:10143000EECF84EE90E008952091810425FFDECF69
:10144000C9CF2091810425FD21C02091820423FF72
:10145000D5CF89E390E0D2CF2091810426FFCECF73
:101460008AE290E008952091810426FFC7CF81E3AE
:1014700090E0089583EE90E0089582EE90E0089564
:1014800080EE90E0089586EE90E0089585E390E088
:101490000895972F7A30B8F46630A8F48530B0F408
:1014A00070E026E0929F600D711D1124FB019CE30A
:1014B000899FE00DF11D1124EE0FFF1FE651FF4F34
:1014C00085919491089580E090E0089581E0FCCFAB
:1014D0001F93CF93DF930E94A709EC01C11580E50C
:1014E000D807F0F5C11580E4D80708F09CC0C03ECD
:1014F000D10520F5CD3CD10508F082C0C83AD10510
:1015000078F4C53AD10508F073C0C130D10519F19E
:10151000209709F1C430D105F0F4D0E0C0E01BC041
:10152000C33CD105D0F7C85AD0E0CC0FDD1FCA5755
:10153000DC4F0990D881C02DD4640DC0C11580E264
:10154000D80708F0D1C0C11581E0D80708F05AC00B
:10155000C83ED10510F7CE01DF91CF911F910895BC
:10156000C03682E5D80718F5C03482E5D80708F000
:101570006BC0C03282E5D80708F05FC0C11582E5B4
:10158000D80708F497C02C2F2695269580E2289F2F
:10159000900111248C2F8370C1E0D0E002C0CC0FE9
:1015A000DD1F8A95E2F7C22BD32BDD68D4CFC03A7A
:1015B00082E5D80760F4C03882E5D80708F459C03E
:1015C000CF71D0E0DC2FCC27C46FD06AC4CFC03C31
:1015D00082E5D80708F462C0C03E82E5D80708F06B
:1015E0009CCFDC2FCC27CC27DF71C06FD06AB3CF64
:1015F000C55AD0E0CD57DC4FC881D0E0D064ABCF26
:10160000D065A9CF8D2F0E945809182FCE01992798
:101610000E94A709C12FD0E0DC2FCC27CC27DF7197
:10162000C82BD92B98CFCE0199270E94A709CC2788
:10163000DF70C82BD92BD06A8ECFCF71D0E0DC2FD2
:10164000CC27C16FD06A87CF2C2F2695269527707F
:1016500080E2289F900111248C2F8370C1E0D0E09C
:1016600002C0CC0FDD1F8A95E2F7C22BD32BDC68BA
:1016700072CF2C2F26952695277080E2289F900107
:1016800011248C2F8370C1E0D0E002C0CC0FDD1F8D
:101690008A95E2F7C22BD32BDA685DCF8C2F8F713E
:1016A0000E945809C82FD0E0DC2FCC27CC27DF714F
:1016B000D06251CF8C2F8F710E94580955E0D6957A
:1016C000C7955A95E1F7CF70D0E0DC2FCC27282FB3
:1016D00030E084FF05C044E0220F331F4A95E1F754
:1016E000C22BD32BD06937CF8D2F8F710E94580911
:1016F000182FCE0199270E94A709C12FD0E0DC2F17
:10170000CC27CC27DF71C82BD92BD2CF80959091D5
:10171000A50598239093A505089580959091A60519
:1017200098239093A6050895809106069091CD0583
:10173000981301C008958F5F8770FACFB0E0A0E0E2
:10174000E4EAFBE00C94AA2F7C010091B70410910D
:10175000B80480913B0490913C04082B192BCFE0F6
:10176000D0E0CC24C394D12CBC2EC6010C2E02C0D8
:10177000880F991F0A94E2F780239123892B49F45B
:10178000219790F7B12C8B2DCDB7DEB7E9E00C9403
:10179000C62FB7018C2F0E94490A0E94680A019740
:1017A00079F3F1CFCF93DF93EC010E949E0BBE0142
:1017B0000E94490A0E94680ADF91CF9108959A30E9
:1017C00078F5863068F5E82FF0E086E0989FE00D28
:1017D000F11D11249E2F977083E0F695E7958A9569
:1017E000E1F7EE0FFF1FEE0FFF1FE65FFB4F50E02C
:1017F00040E080E0219130E0092E02C03695279527
:101800000A94E2F721703327042E01C0220F0A94B4
:10181000EAF7822B4F5F5F4F4430510559F7089527
:1018200080E008959A3098F5863088F5E82FF0E04A
:1018300086E0989FE00DF11D11248E2F877041E006
:1018400001C0440F8A95EAF783E0F695E7958A95FB
:10185000E1F7EE0FFF1FEE0FFF1FE65FFB4F30E0DB
:1018600020E070E05191DF011197CB01022E02C000
:10187000969587950A94E2F7817081958527842350
:1018800085278C932F5F3F4F2430310559F70895FA
:101890009C01267033272630310531F488609093FF
:1018A000B8048093B7040895877FF9CF21E030E032
:1018B00002C0220F331F8A95E2F720953095809160
:1018C000B7049091B804822393230E94480C089592
:1018D000909131048095892380933104282F2770BB
:1018E00069F4891759F09091820492FF07C0869598
:1018F000869586950E94560C10923104089521E039
:1019000030E002C0220F331F8A95E2F78091B704BE
:101910009091B804822B932B0E94480C08959093C9
:101920003C0480933B040895FC0124812223C1F0F0
:10193000808191810E94D20B92959F70963091F098
:1019400058F4925F9F70923058F4803F19F030F451
:10195000883E30F481E008959A5FF4CF843FD1F35C
:1019600080E00895883EB0F3813FD1F7F3CFA6E041
:10197000B0E0EDEBFCE00C94B02F26E0FC01DE01C2
:10198000119601900D922A95E1F7FC01258189813C
:101990009A81222399F0662389F00E949E0B182FCA
:1019A000682F89819A810E94120C69817A81812F26
:1019B0000E94490A2696E3E00C94CC2F0E94DF0B8C
:1019C000182FF3CF9C013A9521153F4150F5FC01AA
:1019D000EE27F170BC0166277270AC014427547089
:1019E0009C012227387094FF0EC080E1EF2B09F490
:1019F00080E0672B09F08062452B09F08064232B7F
:101A000089F08068089581E0EF2B09F480E0672B6E
:101A100009F08260452B09F08460232B19F088605F
:101A2000089580E008950F931F93CF93DF938B0168
:101A3000EA019091C305943061F58093E9008FEF3E
:101A40009091E800815095FD06C095ED9A95F1F7CB
:101A500000008111F5CF8091E80085FF1AC00E9437
:101A6000A106811111C08091E80085FD06C080911A
:101A7000E8008E778093E800F2CFF80181918F0122
:101A80008093F100219779F78091E8008E77809319
:101A9000E800DF91CF911F910F91089543E050E04E
:101AA000BC0182E00E94130D0895CF93DF93EC01F7
:101AB00048E050E0BC0181E00E94130D88E0FE0187
:101AC000A9EBB5E001900D928A95E1F7DF91CF91F6
:101AD0000895B0E0A0E0EFE6FDE00C94A92F7C01B2
:101AE0005B016A018091700401E010E08A3010F41B
:101AF0000AE010E0C1E0D0E0B501C701F6010995A8
:101B0000811104C021960C171D072CF4CDB7DEB748
:101B1000EAE00C94C52FCC9F9001CD9F300D300D85
:101B2000112490E080E045E34A95F1F7000001962A
:101B300082179307C1F7E0CF6091ED02809197057E
:101B400080FF20C08091EC0243E0849FC0011124FB
:101B5000895E9A4F539A2BB1277F3BB138605FB7AC
:101B6000F894FC01649FE00DF11D1124BF0168177A
:101B70007907D1F45FBF8FE594E00197F1F700C0DA
:101B8000000008958091EE029091EF0223E0829F81
:101B9000F0011124E95EFA4F8917A0F61182108234
:101BA00012828F5F3396F8CFFC014191CF01E8E0BC
:101BB0003BB9000000C047FF2BB9440F000000C034
:101BC00000C000C02BB900C0EA9591F7D0CF0F93A9
:101BD0001F93CF93DF93EC0110E000E09091F002AF
:101BE0009017110609F06CF40E949C0D8C8190E016
:101BF0000196817099278C83DF91CF911F910F916E
:101C000008952091EE02A801420F511D9A01220F62
:101C1000331F240F351F295E3A4F4C81609199057F
:101C20008091980596959017110651F04CF0442339
:101C300049F040919A050E948C080F5F1F4FCECF4C
:101C40004423B9F340E0F7CFB0E0A0E0EAE2FEE0E1
:101C50000C94A72FEC014C81042F10E09801D801BF
:101C60000E941D349B01AC010E94E8334B015C01D2
:101C7000E0E2F0E0E01BF10BA5E5B0E0AC019B0178
:101C80000E94E8336B017C019F01DF010E94FE2F5F
:101C90009B01AC010E94F3339B01AC01280D391D5F
:101CA0004A1D5B1DC701B6010E94FB33F22E822F35
:101CB00090E039E23F1520F143E0249F9001112488
:101CC00035952795122F109500E085E5E82EEF1841
:101CD0008091F002081718F10E949C0D9C8181E010
:101CE000992319F0903219F48FEF8093EB028091D1
:101CF000EB02890F8C83CDB7DEB7ECE00C94C32FD9
:101D000025E530E0B901681B790B9B01220F331FD9
:101D1000260F371F37FFD4CF2F5F3F4FD1CF8E2DE8
:101D200001FD8F2D2091EE02622F600F7727771F24
:101D30009B01220F331F260F371F295E3A4F412F79
:101D4000609199050E948C080F5FC2CFEF92FF92BD
:101D50000F931F93CF93DF93EC018C81811109C006
:101D600081E08C831092160592E09093EA028093B2
:101D7000E9028091EE029091EF0223E0829FF00150
:101D80001124E95EFA4F891758F110E003E06091E1
:101D9000F002161758F10E949C0D8091E9022091E3
:101DA0001605280F209316059091EA02980F90933C
:101DB000EA02191654F4022E000C330B4091F00283
:101DC0004150550B2417350734F081958093E90273
:101DD000813009F41C82CDB7DEB7E6E00C94C92F40
:101DE0001182108212828F5F3396CDCFE12EF12CBB
:101DF00070E0C7010E94E42F2091EE02820F482F6D
:101E000050E020911605022E000C330BE216F3066B
:101E1000BCF02091EA02022E000C330B2E153F0578
:101E20007CF0809F90011124295E3A4F40919A05E1
:101E300060919905809198050E948C081F5FA7CF3B
:101E4000FA01EE0FFF1FE40FF51FE95EFA4F118252
:101E500010821282F3CFB0E0A0E0E1E3FFE00C9447
:101E6000A82FEC018A81BB24BA9480FD02C0BB2458
:101E7000B394A090F0028C81811109C081E0B81266
:101E80001EC08FEF8A0D8093150581E08C83F12CA5
:101E9000E12CEA14B8F00E949C0D8091150591E0A8
:101EA000B91254C081114DC08091F00281508093CD
:101EB00015051C82CDB7DEB7EBE00C94C42F109251
:101EC0001505E3CF0091EE020E0D1F2D111DC80167
:101ED000880F991F080F191F095E1A4FF801118208
:101EE0001082128234E0C32ED12C912C80911505E2
:101EF000890D813114F18F70082E000C990B8E150D
:101F00009F0591F480919A058C9DA0018D9D500DA7
:101F100011245595479555954795980160919905D8
:101F2000809198050E948C089B0CF1E0CF1AD10893
:101F3000E9F68FEFE81AF80AACCF87FFDDCF8A0DFC
:101F4000DBCF815080931505BC82B4CF90E0019621
:101F50006091F00270E00E94E42F809315058C835D
:101F6000A9CFEF92FF921F93CF93DF93EC0110E084
:101F7000EE24EA94F12C6091F002161770F00E94A2
:101F80009C0D9A818C8190FF27C08F5F8C83DF919D
:101F9000CF911F91FF90EF9008952091EE02422F74
:101FA000410F5527551FCA019A01220F331F280FD1
:101FB000391F295E3A4F70E0C7010E94E42F962F27
:101FC0008C8140919A0560919905199F800D11248B
:101FD0000E948C081F5FCFCF8150D8CF909197057A
:101FE00090FF0EC09091EE022091EF0233E0939F9C
:101FF000F0011124E95EFA4F921718F00E949C0D2F
:1020000008958183608342839F5F3396F5CFA3E079
:10201000B0E0EDE0F0E10C94B12F9091970590FFC6
:102020000AC09E012F5F3F4F0E948C084B8169813F
:102030008A810E94EE0F2396E2E00C94CD2FCF937D
:10204000DF93EC01E7E9F5E0438162818C810E9436
:1020500007108C818F5F8C83DF91CF910895CF9390
:10206000DF93EC01EC81F0E0E458FB4F4491E7E9A9
:10207000F5E0628181810E9407108C818F5F8C83E3
:10208000DF91CF910895CF93DF93682F81E06A307D
:1020900019F06D3031F480E00E94C310DF91CF91D0
:1020A0000895809113089091140826E0FC01ADE09A
:1020B000B8E001900D922A95E1F7603E08F458C00F
:1020C00026E0FC0111922A95E9F7C0911308D091FE
:1020D000140846E050E0BE018DE098E00E94B53063
:1020E0009E012D503640892B41F1C90145E096955E
:1020F00087954A95E1F741E050E0BA0102C0660FCA
:10210000771F8A95E2F7CB0160910B0670910C0660
:10211000862B972BB9016B5F7F4FE5E0769567952E
:10212000EA95E1F702C0440F551F6A95E2F7842B48
:10213000952B90930C0680930B062A5F3F4F40919E
:102140000A06642F70E0C9010E948D2F481B46309B
:1021500010F4240F311D211572E0370710F030E024
:1021600020E0235F394F309314082093130896CF53
:10217000F6E06F9FB00111246759794F46E050E0B7
:102180000E949F30A2CFCF93382FE0911308F09197
:102190001408ED50F64020910A06622F70E0CF013E
:1021A0000E948D2F281B822F332361F066E00E944E
:1021B000D82FC82FC15010F4CF91089580E20E940B
:1021C0004310F8CF9F01280F311D2115324018F020
:1021D00080E0F0E0E0E08E0F9F2F911D835F994F2C
:1021E0009093140880931308E7CF2091A60580915F
:1021F000A505282B80913204882381F0282B30E01C
:1022000080E094E0FC014191CF0141113F5FF4E097
:1022100086309F07B9F73111109232042093FE03E4
:1022200048E050E063E374E08EEF93E00E94B53045
:10223000892BA9F088E0EEEFF3E0A3E3B4E001908E
:102240000D928A95E1F7E091AD05F091AE053097DA
:1022500031F00280F381E02D8EEF93E0099508952F
:102260001092A605E0E0F4E086E0DF011D928A9579
:10227000E9F790E080E00E942D0890E080E00E9465
:1022800008081092A5050E94F5100895AAE2B0E092
:10229000ECE4F1E10C94B02F85EC95E02091F10095
:1022A000FC012193CF01F5E08D3C9F07B9F78091A8
:1022B000C605833009F470C0B8F4813009F447C012
:1022C000823009F4B1C08091E80083FF7EC2809122
:1022D000C5059091C6059A3008F077C2E92FF0E065
:1022E000E25DFB4C0C94F82F8A3009F48CC08B30E3
:1022F00009F46FC0893039F78091C505813219F72B
:102300008091C9059091CA050297E8F68091E8008E
:10231000877F8093E8008091E80082FF38C0909129
:10232000F3008091F200029731F48091F100813046
:1023300011F0863021F48091F1008093B8058091EE
:10234000E8008B778093E8000E94D206BCCF809192
:10235000C505813A09F0B7CF8091E800877F809367
:10236000E8008091C9059091CA05892B61F468E065
:1023700089EB95E070E00E947E078091E8008B7702
:102380008093E800A0CF60E090E080E0F3CF809100
:10239000C3058111C0CF97CF8091C505813A09F05F
:1023A00092CF8091C9059091CA05892B09F08BCFF6
:1023B0008091E800877F8093E8008091E80080FFAB
:1023C000FCCF8091F1028093F1008091E8008E773C
:1023D000B9CF8091C505813209F075CF8091C905CB
:1023E0009091CA05892B09F06ECF8091E800877F14
:1023F0008093E8000E94D2068091C7058093F10285
:102400000E94301160CF8091C505813209F05BCF09
:102410008091E800877F8093E8000E94D206809137
:10242000C8058093B7054FCF8091C505813A09F063
:102430004ACF8091E800877F8093E8008091E80090
:1024400080FFFCCF8091B705BECF803899F08238ED
:1024500009F0BBC18091C9058F70873008F0B5C104
:102460008093E9008091EB0085FB882780F910922A
:10247000E90006C08091C1059091C205911182606A
:102480009091E800977F9093E8008093F10010927C
:10249000F1008091E8008E7794C1882309F482C10D
:1024A000823009F092C18091C705811185C1809168
:1024B000C9058F702FEF280F263008F086C1809352
:1024C000E9002091EB0020FF77C1933031F4809137
:1024D000EB0080628093EB006FC19091EB00906104
:1024E0009093EB0021E030E001C0220F8A95EAF7DB
:1024F0002093EA001092EA008091EB008860EACF16
:10250000811163C11091C7051F778091E300807826
:10251000812B8093E3008091E800877F8093E8001F
:102520000E94D2068091E80080FFFCCF8091E300FA
:1025300080688093E30082E0111183E08093C305FB
:1025400044C18058823008F040C18091C705909105
:10255000C8058C3D23E09207A1F583E08A838AE2D7
:1025600089834FB7F894DE01139620E03EE051E2F4
:10257000E32FF0E050935700E49120FF03C0E29571
:10258000EF703F5FEF708E2F90E0EA30C0F0C7969B
:102590008D939D932F5F243159F74FBF8091E800B1
:1025A000877F8093E8006AE270E0CE0101960E9486
:1025B0007E078091E8008B778093E80006C1C09683
:1025C000E7CF4091C9055091CA05292F3327233001
:1025D000310509F444C078F52130310509F46FC0A4
:1025E0008BE390E0E6EFF5E02230310509F0EDC035
:1025F0002091E800277F2093E8002091CB053091BF
:10260000CC058217930708F49C0140E021153105A1
:1026100009F064C0411162C08091E80082FDC9CF19
:102620008091C305882329F2853019F28091E80052
:1026300083FFF2CFBECF21323105A9F1223231051D
:1026400009F0C3C04115510509F443C0413051059B
:1026500009F0BBC082E390E0E0E8F5E0C9CF99273C
:1026600081309105C1F0009759F0029709F0ADC093
:10267000E3E4F6E0E4918E2F90E0E3E4F6E007C0B7
:10268000E5E6F6E0E4918E2F90E0E5E6F6E00097CF
:1026900009F49BC0ADCFE3E5F6E0E4918E2F90E026
:1026A000E3E5F6E0F4CF4115510571F041305105F5
:1026B00009F08BC089E090E0E1E2F6E099CF82E199
:1026C00090E0E1E3F6E094CF89E090E0E8E0F6E026
:1026D0008FCF84E490E0E2EBF5E08ACF8091C305F0
:1026E000882309F466CF853009F463CF8091E80030
:1026F00083FD5FCF8091E80082FD8ECF8091E8005E
:1027000080FF84CF9091F3008091F2002115310574
:1027100019F08830910550F041E0089709F040E049
:102720008091E8008E778093E80070CF44914093C9
:10273000F1003196215031090196E8CF803809F037
:1027400044C08091E800877F8093E8008091C405B1
:102750008093F1009ECE811138C01091C7051230D0
:10276000A0F58091E800877F8093E8001093C4056E
:102770000E94D206112311F084E005C08091E3008D
:1027800087FDFACF81E08093C30542E061EC81E0F0
:102790000E94F10642E261EC82E00E94F106809123
:1027A000C30513C08091C705813079F481E093306F
:1027B00009F080E08093C2051092E9008091E80062
:1027C000877F8093E8000E94D2068091E80083FF13
:1027D0000AC08091E800877F8093E8008091EB0039
:1027E00080628093EB00AA96E3E00C94CC2F0E94C9
:1027F00030112FEF84E39CE0215080409040E1F7BE
:1028000000C0000088E19AE00FB6F894A895809384
:1028100060000FBE90936000FFCFCF93DF93EC0179
:102820004A855B856E857F850E9463088B810E9447
:10283000860B8C810E948D0B0E94F51086E0FE01B4
:1028400011928A95E9F7DF91CF910895CF93DF93A5
:10285000EC018D8181FD17C082608D838091A5057B
:102860009B81892B8093A5058091A6059C81892B4E
:102870008093A6050E94F510488559856E857F8551
:10288000CE010E9463081092A8051092A7058D81C1
:1028900080FD03C0CE010E940D14DF91CF910895F9
:1028A000882321F00E94860B0E94F510089588234A
:1028B00039F09091A505982B9093A5050E94F510ED
:1028C0000895882321F00E948D0B0E94F510089531
:1028D000882339F09091A605982B9093A6050E9425
:1028E000F5100895882391F19CEF980F913A80F4A8
:1028F000E0E0F4E026E034E09191891303C0DF01C9
:1029000011971C922E173F07B9F70E94F5100895F2
:1029100090E2980F983050F4877091E001C0990FC1
:102920008A95EAF7892F0E948D0BEFCF9BE5980FD0
:10293000933028F490E080E00E942D080895885A92
:102940008B3120F490E080E00E9408080895CF9336
:10295000DF93EC010E947214CE010E94E20C9E01F2
:10296000205E31092830310510F0CD2B29F40E946A
:102970006114DF91CF9108950E945014FACFFC01A9
:102980008281813031F4FB01808191810E94A71402
:1029900008958230E9F7FB0182819381F7CFCF93CD
:1029A000C82F8823B1F08CEF8C0F813A00F5E0E05E
:1029B000F4E086E094E0DF012D91C21761F08A1700
:1029C0009B07D1F76C2F8EEF93E00E94EE070E94D9
:1029D000F510CF9108952191C21303C0DF01119723
:1029E0001C928E179F07B9F70E94F510EBCF80E27B
:1029F0008C0F883068F4C77021E030E001C0220FEE
:102A0000CA95EAF78091A605822B8093A605DFCFB1
:102A1000EBE5EC0FE33040F4F0E0ED57FC4F808144
:102A200090E00E942D08D5CFC85ACB3190F6EC2FFC
:102A3000F0E0EE0FFF1FEA57FC4F808191810E946A
:102A40000808C7CF1F93CF93DF93182FD0E0C0E0C3
:102A5000893311F4C0E5D0E0812F0E94CF14209774
:102A600039F4812F0E947214DF91CF911F91089544
:102A70008FE99FE00197F1F700C000002197EFCFA9
:102A8000B0E0A0E0E6E4F5E10C94A92FEC018AE0C7
:102A9000A82EFE012491222309F497C0213009F0C9
:102AA0003EC031968491813031F42296FE018491AA
:102AB0000E94221507C0823039F42296FE018491CB
:102AC0000E94CF142196E5CF833031F42296FE0187
:102AD00084910E947214F6CF843009F074C022965B
:102AE000FE01249190E080E0FE0131962053330BEB
:102AF0002A30310548F0019728F3EFE9FFE03197DC
:102B0000F1F700C00000F7CFA89EA001A99E500DCC
:102B10001124C901840F951F2491EF01E5CFE22F05
:102B2000F0E0E752F44FB490822F86958695869513
:102B300090E0FC01E753F44FE4902770F12C022E53
:102B400002C0F594E7940A94E2F731E0E322FF240F
:102B5000FC01E754F44FC490D12C022E02C0D5944E
:102B6000C7940A94E2F7E1E0CE22DD24FC01E755A8
:102B7000F44F049110E002C0159507952A95E2F7ED
:102B800001701127E114F10419F081EE0E94CF14B5
:102B9000C114D10419F086EE0E94CF148B2D0E942F
:102BA0002215C114D10419F086EE0E947214E114AA
:102BB000F10419F081EE0E9472140115110509F457
:102BC00081CF8CE275CFEF017DCFCDB7DEB7EAE0E4
:102BD0000C94C52FCF93DF93EC018A81813071F47F
:102BE00080EE90E00E9440151092A8051092A70573
:102BF000CE010E940D14DF91CF9108958230A1F78C
:102C00008CED90E0EFCFCF93DF93EC018A818130A0
:102C100071F488ED90E00E9440151092A805109282
:102C2000A705CE010E940D14DF91CF910895823047
:102C3000A1F784ED90E0EFCFCF93DF93EC018A8191
:102C4000813071F48AEC90E00E9440151092A80542
:102C50001092A705CE010E940D14DF91CF91089527
:102C60008230A1F780EC90E0EFCFCF93DF93EC01BF
:102C70008A81813071F486EB90E00E9440151092B9
:102C8000A8051092A705CE010E940D14DF91CF91E7
:102C900008958230A1F78CEA90E0EFCFCF93DF93D5
:102CA000EC010E94E20C9E01205E310928303105C2
:102CB00010F0209741F40E9468148C2F0E94CF14CA
:102CC000DF91CF9108950E945714F7CFFB018081C7
:102CD00091810E944E160895CF93DF93EC018A8173
:102CE000823041F4FB01828193810E944E168D81D6
:102CF00082608D83DF91CF9108950F931F93CF93BF
:102D0000DF938C01EB010E944E16209741F4C8011D
:102D10000E94A714DF91CF911F910F9108958FE921
:102D20009FE00197F1F700C000002197EECF0F93CD
:102D30001F93CF93DF93EC01FC0101900020E9F792
:102D40008F0101501109C017D10728F0DF91CF91F1
:102D50001F910F91089589910E944310F4CFB0E024
:102D6000A0E0E5EBF6E10C94AB2F6C017B0164E68F
:102D700070E088E70E94EB2C8C01E601EC0CFD1C56
:102D800017FD0BC0FE01849164E670E00E94572D90
:102D90008C012196CE15DF0599F70E94CD2D81E09B
:102DA0000115110509F080E0CDB7DEB7E8E00C941D
:102DB000C72F8091A3059091A405911103C091E0C4
:102DC00089270895882369F062E070E08EE795E036
:102DD0000E94AF16811103C08091A305089510923F
:102DE000A3058091A305EBCFCF93C091A30580915C
:102DF000A4058823D1F00E94E207605A75418F4FE5
:102E00009F4F60939F057093A0058093A1059093B9
:102E1000A205C11108C062E070E08CE795E00E9455
:102E2000AF16811105C0C091A3058C2FCF910895D5
:102E300081E08093A305F7CFB0E0A0E0E2E2F7E104
:102E40000C94A32FFC016280448081E08483ECE732
:102E5000F4E07490EBEFF4E0E491C0919A05C6952C
:102E6000C158D0E0CC0FDD1FCD2FDD27812C75E0C0
:102E7000972EAA24AA94B12C55245A94E719EE2E21
:102E8000F12C8091F002881638F00E949C0DCDB78D
:102E9000DEB7E0E10C94BF2FC82CD12C82E0861560
:102EA00068F09C9CF0019D9CF00D1124E95BFA4FA9
:102EB000809198058083809199058183411023C07A
:102EC0009C9CF0019D9CF00D1124E95BFA4F13824C
:102ED00012822091EE02C601820F911D9C01220FE9
:102EE000331F280F391F295E3A4F9C9CF0019D9C8F
:102EF000F00D1124E95BFA4F4281618180810E94CB
:102F00008C088394BECF9C9C80019D9C100D112445
:102F1000095B1A4FF80183818823F1F08150838384
:102F2000859DC0011124648170E00E948D2FFB01FA
:102F3000FF27E458FB4F8491E82FE719E59DC00176
:102F40001124B7010E948D2F80919A05689FB001CE
:102F50001124F8017283BDCF0E948F30B5010E9409
:102F6000E42F8C179D070CF0B4CFF2E0F61598F41F
:102F70000E948F30B5010E94E42FF80180830E94E7
:102F80008F30209199052695622F70E00E94E42FE2
:102F9000280FF80121839C9CF0019D9CF00D1124C9
:102FA000E95BFA4F128280919A05893C58F088ECCF
:102FB0009C9CF0019D9CF00D1124E95BFA4F8483E9
:102FC000838387CF8431A0F784E1F2CFB0E0A0E023
:102FD000ECEEF7E10C94A72F49015A016B017C013B
:102FE0000E9476088401A4016A2D7B2D88E090E080
:102FF0000E94A73394014A2D5B2DB601C70100E260
:103000000E942830622F84E290E00E949533CDB771
:10301000DEB7ECE00C94C32FA3E0B0E0E2E1F8E10E
:103020000C94AA2F082FE62EF42EC22E909197050D
:1030300090FF41C020919805281308C08091990500
:10304000861304C080919A05841729F08091130596
:10305000826080931305E92FE695E695AE2FB0E0E8
:10306000AF52BC4F8C91809311059C7F943039F501
:103070009E012F5F3F4F4F2D6E2D802F0E948C0899
:103080004B8169818A810E94EE0F00939805E0923E
:103090009905F0929A05CC2071F0209197056091E6
:1030A0009B0570919C05302FA70180919D05909103
:1030B0009E050E94E6172396E9E00C94C62F823005
:1030C00019F4F0909A05E1CF8630A1F1893091F1A1
:1030D0008931D9F6E9516E2F6170B62EE695F0E090
:1030E000E958FB4F1491D12C6091F002D61618F0DC
:1030F0000E949C0DCACFD19EC001112470E00E9495
:103100008D2F802FB11014C0860F2091EE02622FF8
:103110006D0D7727771F9B01220F331F260F371F57
:10312000295E3A4F4F2D6E2D0E948C08D394DCCF30
:10313000861BEBCF022FA9CFE7E9F5E0438121E120
:10314000421B08F440E021E0628181810E940C185A
:103150000895E7E9F5E0438121E1420F08F44FEFDC
:1031600021E0628181810E940C180895E7E9F5E071
:10317000628121E1621B08F460E021E043818181EA
:103180000E940C180895E7E9F5E0628121E1620FE1
:1031900008F46FEF21E0438181810E940C180895AB
:1031A000E7E9F5E0818121E0438162818A500E9454
:1031B0000C180895E7E9F5E0818121E043816281FF
:1031C000865F0E940C18089580919B05882319F052
:1031D000815080939B0520919705309198054091EF
:1031E000990550919A0560919B0570919C0580917D
:1031F0009D0590919E050E94E617089580919B057C
:10320000833018F48F5F80939B0520919705309150
:1032100098054091990550919A0560919B05709190
:103220009C0580919D0590919E050E94E61708954A
:10323000E7E9F5E020812E7F2083318142815381AF
:1032400064817581868197810E94E6170E946F08CC
:10325000E1E1F5E08281816082830E949C0D089506
:10326000E7E9F5E085E0808311828FEF828384EBCC
:1032700083831482A1E1B5E012968C91129783604A
:1032800012968C93758125E030E04FEF54EB60E0AF
:10329000868197810E94E6170895A4E0B0E0E3E5F7
:1032A000F9E10C94B02F4091520450915304609175
:1032B0005404709155042FB7F8948091B205909101
:1032C000B305A091B405B091B5052FBF841B950B34
:1032D000A60BB70B11E084369105A105B10570F17D
:1032E0000E943E096E5F7F4F8F4F9F4F69837A83A5
:1032F0008B839C8380914D0190914E018A5A9B4F04
:1033000040914C0150E04530510510F044E050E050
:10331000BE016F5F7F4F0E94C23082E090E00E944A
:10332000172F182F882351F00E94E2076093520450
:10333000709353048093540490935504812F2496E2
:10334000E3E00C94CC2FACE0B0E0E9EAF9E10C94B6
:10335000B12F88E0E7E9F5E0DE01119601900D92CA
:103360008A95E1F78091110590911205A0911305BE
:10337000B091140589879A87AB87BC872B854091CC
:103380006C0450916D0460916E0470916F043FB7AE
:10339000F8948091B2059091B305A091B405B091D5
:1033A000B5053FBF841B950BA60BB70B8436910563
:1033B000A105B10510F4222319F1809155019091D6
:1033C00056018A5A9B4F4091540150E04D305105AF
:1033D00010F04CE050E0BE016F5F7F4F0E94C230A2
:1033E00083E090E00E94172F882369F00E94E20793
:1033F00060936C0470936D0480936E0490936F04DB
:103400001092130581E02C96E2E00C94CD2FEF9200
:10341000FF921F93CF93DF9300D000D000D0CDB7A1
:10342000DEB77B0190E080E00E94172F182F8823E1
:1034300009F46AC040913F0150E04115510511F077
:1034400041E050E060914001709141016A5A7B4F28
:10345000CE0106960E94C23040914E0450914F0416
:1034600060915004709151042FB7F8948091B20587
:103470009091B305A091B405B091B5052FBF841B01
:10348000950BA60BB70B84369105A105B10538F451
:1034900087E594E00E946B069E818917A9F181E07F
:1034A00090E00E94172F882309F44EC040914701F5
:1034B00050E04630510510F045E050E06091480181
:1034C000709149016A5A7B4FCE0101960E94C23029
:1034D00087E594E00E946B069E81891335C00E94A7
:1034E000E20760934E0470934F04809350049093CE
:1034F000510485E0FE013196A9E4B4E001900D92FB
:103500008A95E1F711E00BC085E0E7E5F4E0DE0124
:10351000119601900D928A95E1F71111EACF85E09D
:10352000E9E4F4E0D70101900D928A95E1F7812F4B
:1035300026960FB6F894DEBF0FBECDBFDF91CF91B8
:103540001F91FF90EF90089510E0E9CFA8E0B0E060
:10355000ECEAFAE10C94B12F66EE7EEF90E080E0A9
:103560000E94B33360E082E090E00E94953381E0F6
:1035700090E090933C0480933B0461E083E090E012
:103580000E94953360E074E184E090E00E94B333E0
:1035900060E086E090E00E9495336FEF87E090E076
:1035A0000E94953340E050E0BA0188E090E00E942C
:1035B000A73360E084E290E00E94953360E087E109
:1035C00090E00E94953360E08CE090E00E9495339B
:1035D00060E08DE090E00E94953319821A821B8290
:1035E0001C821D821E821F82188648E050E068E11E
:1035F00070E0CE0101960E94853340E050E0BA01B0
:1036000080E290E00E94A73340E050E0BA018FE0F2
:1036100090E00E94A73340E050E0BA0183E190E0DF
:103620000E94A7332896E2E00C94CD2F909182045B
:1036300092FB222720F9281779F080FB92F99093CA
:103640008204609181047091820484E090E00E9481
:10365000B33382E00E94680C08951F920F920FB658
:103660000F9211242F933F934F935F936F937F9308
:103670008F939F93AF93BF93CF93DF93EF93FF937A
:10368000D091E900DF708091EC00C82FC17080FDFF
:10369000C0E81092E9008091F000877F8093F000ED
:1036A00078940E9446111092E9008091F0008860A1
:1036B0008093F000CD2BCF70C093E900FF91EF9184
:1036C000DF91CF91BF91AF919F918F917F916F913A
:1036D0005F914F913F912F910F900FBE0F901F90D0
:1036E00018951F920F920FB60F9211242F933F93AC
:1036F0004F935F936F937F938F939F93AF93BF93FA
:10370000EF93FF938091E10082FF09C08091E20076
:1037100082FF05C08091E1008B7F8093E100809162
:10372000DA0080FF24C08091D80080FF20C0809103
:10373000DA008E7F8093DA008091D90080FF9DC0EF
:1037400080E189BD82E189BD09B400FEFDCF81E041
:103750008093C3058091B605811109C00E9482063D
:103760000E9423078091E20084608093E2008091B0
:10377000E10080FF17C08091E20080FF13C08091BC
:10378000E2008E7F8093E2008091E200806180936E
:10379000E2008091D80080628093D80019BC85E057
:1037A0008093C3058091E10084FF2BC08091E200EB
:1037B00084FF27C080E189BD82E189BD89B5982F4A
:1037C000917080FFFBCF8091D8008F7D8093D800CF
:1037D0008091E1008F7E8093E1008091E2008F7EF6
:1037E0008093E2008091E20081608093E20080910A
:1037F000C405882309F447C084E08093C305809101
:10380000C3058091E10083FF27C08091E20083FF20
:1038100023C08091E100877F8093E10082E0809364
:10382000C3051092C4058091E1008E7F8093E10072
:103830008091E2008E7F8093E2008091E2008061BF
:103840008093E20042E060E080E00E94F106809117
:10385000F00088608093F000FF91EF91BF91AF91ED
:103860009F918F917F916F915F914F913F912F9198
:103870000F900FBE0F901F90189519BC1092C305A2
:103880001092B60574CF8091E30087FD93E090938A
:10389000C305B5CF78941F921FB61F9211248F9342
:1038A0009F93AF93BF938091B2059091B305A09180
:1038B000B405B091B5050196A11DB11D8093B20567
:1038C0009093B305A093B405B093B505BF91AF91A4
:1038D0009F918F911F901FBE1F9018959C014FB70D
:1038E000F8948091B2059091B305A091B405B09180
:1038F000B5054FBF821B930B08952FB7F8948091A5
:10390000B2059091B305A091B405B091B5052FBF54
:1039100008950F931F93CF93DF93C62FD42F022FB9
:10392000FC0185818823A9F0609309060E947D1C13
:103930009093080680930706C77081E001C0880F46
:10394000CA95EAF70E946814DF91CF911F910F91F9
:10395000089580910906681332C0809107069091FE
:1039600008060E946E1C883C910548F510E21D0F68
:10397000CD17B9F080E28C0F883040F4C77081E039
:1039800001C0880FCA95EAF70E946114183048F404
:1039900081E09D2F977001C0880F9A95EAF70E94E9
:1039A0006814802F0E942215183070F6D77081E0BD
:1039B00001C0880FDA95EAF70E946114C5CFC7707D
:1039C00081E001C0880FCA95EAF7F6CF8091A9057A
:1039D000882319F00E947D1C08950E943E09CB01A6
:1039E0000895609197056695669570E04BE050E00C
:1039F0008EED92E00E94A830892B19F481E080932B
:103A000012050E94E61C90930C0580930B05809193
:103A1000130584608093130508959091970590FF96
:103A20003AC09370811138C094609093970580914B
:103A30001305816080931305662391F0209197050B
:103A4000309198054091990550919A0560919B0598
:103A500070919C0580919D0590919E050E94E617AE
:103A6000609197056695669570E04BE050E08EEDAD
:103A700092E00E94A830892BB9F00E946F0881E083
:103A800080930E0520E040919A0560919905809100
:103A900098050E940C1808958A3210F0946AC5CFD8
:103AA000880F880F982BC1CF0E94F11CE8CF80911E
:103AB000970586958695815009F489E261E00E9418
:103AC0000D1D089580919705869586958F5F8A32A2
:103AD00008F081E061E00E940D1D08959091970526
:103AE00090FF09C096959695981728F0961718F4A8
:103AF0000E94621D089561E00E940D1D0895A6E1D7
:103B0000B0E0E5E8FDE10C94A62F8E01035F1F4FA6
:103B10008AE0F80111928A95E9F78EEBC82E83E0CE
:103B2000D82EF12CE12CAA24A394B12C29EC822EBE
:103B300023E0922EF60181916F018F3F09F442C07C
:103B4000F894E82FE295EF70F0E021A18F70A501C5
:103B500002C0440F551F8A95E2F7CA01922F982B95
:103B600091A392A18095892382A3789400C0E3EC6D
:103B7000F3E0712C31E021912F3F09F493C0A22F83
:103B8000A295AF70B0E090968C9190E02F7002C03B
:103B9000959587952A95E2F780FD84C0832F782A32
:103BA000330F8E169F0639F7F601319780818F3FCC
:103BB00011F00E94270950EA5A95F1F7F801EE0D2D
:103BC000FF1D70828FEFE81AF80A95E0E916F104FC
:103BD00009F0B0CF4AE050E0B80185E794E00E94D8
:103BE000B530009741F02AE0F801A5E7B4E0019074
:103BF0000D922A95E1F70091800410E00C571B4FBD
:103C0000892B09F451C081E0809341040E947D1CFE
:103C10009093400480933F04D12CC090A905FE01ED
:103C200031967F0185E0CC2009F494C011928A95E9
:103C3000E9F7809170048A3008F05AC047E05AE1F1
:103C4000B701C8010E94690D882309F472C04DE4D0
:103C500059E1B701C8010E94690D882309F469C0C0
:103C600043EA59E1B701C8010E94690D882309F4AC
:103C700060C01092700480917F0490E045E050E0B5
:103C8000B7018C579B4F0E94B53021E02093480428
:103C9000892B09F042C0C12C8C2D8D296696EDE050
:103CA0000C94C22F80E07BCFD0904104DD2009F43A
:103CB000B3CF80913F04909140040E946E1C059701
:103CC00008F4AACF45E050E065E774E0C8010E941F
:103CD000B530892B59F085E0E5E7F4E0D801019093
:103CE0000D928A95E1F71092410497CFD12CFBCF2A
:103CF00080914204909143040E946E1C843F914045
:103D000008F09CCF80914804882329F285E0F701D0
:103D100011928A95E9F710924804A0917F04B0E0CF
:103D2000AC57BB4F85E0F70101900D928A95E1F702
:103D3000B3CF809170048F3F31F08F5F8093700418
:103D40008A3008F498CF0E947D1C9093430480939E
:103D50004204D8CFF801A7E5B4E001900D928A950E
:103D6000E1F787E594E00E946B068093560480900B
:103D70005C0490905D04A0905E04B0905F0480911C
:103D8000440490914504A0914604B09147048816DC
:103D90009906AA06BB06B1F08092440490924504AD
:103DA000A0924604B09247040E94E207861A970A3E
:103DB000A80AB90A8092710490927204A0927304C6
:103DC000B09274048CE0E0E6F4E0D70101900D922B
:103DD0008A95E1F72981822F86958695FA80EB8076
:103DE000BC800A851B859C8510926A04112309F406
:103DF00053CF14FD9093140510FF0AC090919705BE
:103E000020FF1AC091609093970560E00E940D1DFD
:103E100011FF06C020E04B2D6E2D8F2D0E940C1837
:103E200012FF04C00023A9F00E94F11C13FF34CF3D
:103E300081E080930E0530CF9E7F909397050E947E
:103E40006F08809113058160809313050E949C0D7B
:103E5000DFCF0E946F08EACFB0E0A0E0E2E3FFE12D
:103E60000C94A92F8C01DC0114968C91882309F401
:103E70006CC161E0C8010E94B70CEC01F8018581BA
:103E8000882319F18091A7059091A8050097E9F082
:103E9000C817D907D1F0992764E0880F991F6A9550
:103EA000E1F7FC01E459FE4F208124602083895909
:103EB0009E4FDC01CD93DC930E9426141092A50541
:103EC00061E0C8010E94B70CEC01F80185818823EC
:103ED000F1F150E2F52ECC33D10520F4FE01E95B7F
:103EE000FC4FF0801F92FF92DF93CF93D8018C910B
:103EF0001F928F9311968C911F928F9382EF92E075
:103F00009F938F931F9288E18F9389EB94E09F9307
:103F10008F930E94D230EDB7FEB73E960FB6F8945D
:103F2000FEBF0FBEEDBF8091060490910704449739
:103F300009F487C08091060490910704FC01EF52B8
:103F4000FB4FF08201969093070480930604C534DA
:103F5000FEE7DF0709F40CC108F092C0C1343EE768
:103F6000D30709F4D5C008F07AC0C13190E4D9076D
:103F700009F4BBC0C034AEE7DA0709F411C1CE01C1
:103F80009755FE018F3F910511F008F063C1FF279F
:103F900044E0EE0FFF1F4A95E1F79F0129593E4F7C
:103FA0007901D80115968C91E459FE4F908180FBE0
:103FB00090F99083882309F430C10E947D1C90936E
:103FC0009A0480939904F70182818F5F82838091A4
:103FD000A5059091A605892B838380913204848363
:103FE0004681578166857785C7010E946308D7019E
:103FF00015968C9181FF0EC190E080E09093A7050B
:104000008093A805F8018581882309F421C51092C1
:104010000906CE019057839708F004C584E090E02C
:104020000E947F339093820480938104FE01E150CB
:10403000F047E232F10508F035C1E85CFB4C0C9426
:10404000F82F1092070410920604E1EDF4E085EEDB
:1040500094E020E221938E179F07E1F76BCFF801E0
:104060008581C334FEE7DF0709F47BC008F472C022
:10407000882309F45AC083EE0E94CF148FE450C005
:10408000C9343EE7D30709F4B0C0D0F4D80115967F
:104090008C91C734BEE7DB0709F47BC008F472C01B
:1040A000882309F442C083EE0E94CF1481EE0E945F
:1040B000CF1484E10E94221581EE0E94721432C056
:1040C000CB34FEE7DF0709F485C008F499C0CC348F
:1040D0003EE7D30709F053CFF8018581882329F102
:1040E00070E060E089E193E010C0D80116968C91F1
:1040F0001697807F09F043CF15968C91882309F499
:104100003ECF70E060E083E390E00E947D160DC03A
:10411000F8018581882349F083EE0E94CF1487E05F
:104120000E94221583EE0E947214809131048770E0
:1041300061F0D80115968C91882339F08091820422
:1041400082FF03C082E00E94680CCDB7DEB7EAE0D0
:104150000C94C52F882349F383EE0E94CF1489E085
:10416000DFCF882311F383EE0E94CF1480E5D8CFF0
:10417000D80115968C918823C1F283EE0E94CF144A
:1041800082E5CECF882389F283EE0E94CF1481E5A9
:10419000C7CF882351F283EE0E94CF1488E2C0CFAC
:1041A000F8018581882309F4C0CF8091970580FDAF
:1041B0000EC081608093970561E0869586950E9488
:1041C0000D1D0E94DA1889E30E942215AECF0E94CD
:1041D0001819F9CFD80115968C91882309F4A5CF29
:1041E00070E060E086E093E090CFD80115968C9166
:1041F000882309F49ACF70E060E086E091E085CFF3
:10420000F8018581882309F490CF70E060E089E1AE
:1042100091E07BCF9C2F8D2FF1CEF9014485558500
:1042200066857785C9010E946308D70115968C9130
:1042300081FFE8CEC7010E940D148091A7059091DF
:10424000A805C817D90709F0DDCE1092A80510926D
:10425000A705D8CEE851FC47E730F10508F0D2CEEB
:10426000E65AFB4C0C94F82F26E241EE61EEC801B1
:104270000E94891C5ACF27E245EE65EEF8CF26E270
:1042800041EE60EEF4CF27E245EE64EEF0CF26E299
:1042900041EE62EEECCF27E245EE66EEE8CF28E293
:1042A00041E0EBCF8091810481608093810495C0CF
:1042B000809182048860809382048FC08091810401
:1042C0008260F3CF809181048460EFCF809181047C
:1042D0008860EBCF809182048160EDCF8091820471
:1042E0008260E9CF809181048061DFCF8091810479
:1042F0008062DBCF809181048064D7CF0E9430112F
:10430000809181048068D1CF809181048C60CDCF71
:10431000809182048360CFCF809181048E7FC5CF4E
:1043200080918204877FC7CF809181048D7FBDCF2C
:10433000809181048B7FB9CF80918104877FB5CF35
:10434000809182048E7FB7CF809182048D7FB3CF1E
:10435000809181048F7EA9CF809181048F7DA5CF2C
:10436000809181048F7BA1CF0E94301180918104C4
:104370008F779BCF80918104837F97CF8091820438
:104380008C7F99CF8091810482FB992790F921E05D
:10439000922790FB82F990FB83F987CF809182046A
:1043A000982F909591708E7F892B90FB81F983CF08
:1043B00090918104892F8F7B96FF806476CF0E9435
:1043C000301190918104892F97FB87F980586DCF28
:1043D00061E08EE090E00E949533609181047091DD
:1043E000820484E090E00E94B3330E9430119DCE9D
:1043F00060E0EFCF90918104892F8F7E94FF8061E0
:1044000054CF90918104892F8E7F90FF81604DCF92
:1044100090918204892F877F93FF88604CCF809191
:10442000080481110FC089E2E0E0F4E026E034E006
:104430009191891303C0DF0111971C922E173F073A
:10444000B9F703C385E3F0CF8091970580FF03C0E0
:104450000E9418196ACE81608093970561E0869565
:1044600086950E940D1D61CE47E55DE162E67DE126
:104470000E9469085ACE42E65DE167E57DE1F8CF2A
:1044800040ED58E16AED78E1F3CF4AED58E160ED97
:1044900078E1EECF46EB58E163EC78E1E9CF43EC0D
:1044A00058E166EB78E1E4CF4CE958E169EA78E15C
:1044B000DFCF49EA58E16CE978E1DACF44EE58E120
:1044C0006EEF78E1D5CF4EEF58E164EE78E1D0CFD2
:1044D00061E081E0C6CF65E082E00E946E1D25CEDE
:1044E00068E086E0FACF6EE089E0F7CF64E18FE024
:1044F000F4CF67E185E1F1CF61E088E1B2CF62E21C
:1045000089E1EBCF69E284E2E8CF0E943011FFEF4E
:1045100024E33CE0F15020403040E1F700C00000CF
:1045200087E797E7909301088093000888E19AE075
:104530000FB6F894A895809360000FBE909360002A
:10454000FFCF6FEF7FEF90E080E00E94B3330E94D7
:10455000F7138091820482FB882780F991E08927F4
:104560000E94161BF8018581C081D181882309F43E
:1045700050C0CE010E949E0BF82E682FCE010E94E3
:10458000120CBE018F2D0E94490A0E94680AD82F82
:10459000C92FA82ED8011596CC9015971696BC90C9
:1045A000B2943FE0B32280913104877009F1EC2C82
:1045B000CC20F9F0892F807F803469F080E28D0F64
:1045C0008830B0F0892F807E803229F4B1E0BD17A9
:1045D00078F4BB2069F08091820482FF09C082E0F8
:1045E0000E94680C809131048770EE24E39481115D
:1045F000E12CDC2ED2942FE0D222EBE0ED1508F472
:1046000069C0ED2DF0E0EF59FB4C0C94F82F80E0E1
:10461000A7CFCE010E94DF0BF82EB3CFFC2FFF7087
:10462000FF2EC07F19F0F29490EFF922CC20B9F060
:10463000FF2069F080E28D0F883010F0A11009C0D2
:104640008091A605F82AF092A6050E94F5108D2FFC
:104650003FC08091A505F82AF092A505F6CF8D2FD1
:104660000E947214FF20B1F1D05E8F2DD83010F06F
:10467000A11003C00E948D0B02C00E94860B0E94F5
:10468000F51028C02C2F2F70F22EC07FC03219F0E9
:10469000F29480EFF822AA2059F031E0A31609F431
:1046A00073C0CC2009F47FC0BB2009F442C0CFCF37
:1046B0008091820482FD39C0CC2081F1FF2039F045
:1046C0008091A605F82AF092A6050E94F51080E0D8
:1046D0000E94CF14ED2DE850FF0B349710F40E9488
:1046E0005208EE20B1F08091310480FD12C0D80153
:1046F00015961C928695869586950E947F0CC8011A
:104700000E942C1F809131048695869586950E9483
:10471000560C60E0C8010E94B70C17CD80E00E94E3
:104720007214FF20B9F28F2DA5CFCC2099F0B110D3
:1047300004C08F2D0E946814CDCF81E0B812CACF7B
:10474000809132049F2D9823F91621F2F82AF092D5
:104750003204C0CFB110BECF8F2D0E946114909152
:1047600032048F2D892329F08F2D80958923809302
:104770003204809109049F2D982309F4ABCFF09463
:10478000F822F0920904A6CFCC2029F095E09B15E1
:1047900008F4A0CFCECFA4E0AB1508F49BCF8F2DAB
:1047A0000E94611497CFBB20D1F3B9E3AB1209C0CB
:1047B000EFEFF7EE23E0E150F0402040E1F700C0DA
:1047C00000008D2F0E94721485CF8C2F86958695C0
:1047D000837069F0813009F07DCF8D2F9C2F93700D
:1047E000C11002C080E090E00E94080873CF8D2FB6
:1047F0009C2F9370C11002C080E090E00E942D08B1
:1048000069CF8C2F837009F03FC0C11063CF4D2F4B
:10481000429546954770440F440F2D2F2F7030E07E
:10482000042E02C0220F331F0A94E2F790E080E0CA
:10483000D4FF09C08FE090E002C0880F991F4A950D
:10484000E2F780959095C695C695C370C23099F0F1
:1048500078F440913B0450913C04C13039F0822BF4
:10486000932B842395230E948F0C34CF242B352B3C
:10487000822B932BF8CF822B932B20913B043091EA
:104880003C0482279327EFCF8695CC2011F08C2F04
:104890008170882309F41ECF4D2F429546954770AD
:1048A000440F440F2D2F2F7030E0042E02C0220F32
:1048B000331F0A94E2F790E080E0D4FF09C08FE054
:1048C00090E002C0880F991F4A95E2F78095909575
:1048D000C695C695C370C23099F078F44091B7047C
:1048E0005091B804C13039F0822B932B8423952347
:1048F0000E94480CEFCE242B352B822B932BF8CF24
:10490000822B932B2091B7043091B80482279327F0
:10491000EFCFCF70CC2029F08C2F0E947F0C8D2FF1
:1049200009CF8D2F0E9461148C2F0E94560CD2CE7D
:104930008D2F32EFA31699F13A1570F090EFA9166A
:10494000D1F0A1EFAA1691F0CC2009F45BC0B11010
:104950007ECE8C2F8F7127C0B3EFAB1639F1E4EF09
:10496000AE12F2CF8091820482FD2EC08C2F8F7107
:10497000CC20D9F218C0CC2069F0F4E0FB1508F483
:10498000A9CECF7181E090E002C0880F991FCA952F
:10499000E2F7B8CF25E02B1508F49CCEF2CF8C2F90
:1049A0008F71C110C2CF0E947F0C94CE90E080E046
:1049B000CC2009F49DCFCF7181E090E002C0880F38
:1049C000991FCA95E2F794CFCC2089F0CF718C2F34
:1049D0000E947F0C8091820482FF07C038E0C39F51
:1049E000C00111248360809331048C2FDCCF81E0DF
:1049F0000E94680C81E08B1508F06CCE82E00E946A
:104A0000680C68CEBB2059F0893309F0DACE9FEFED
:104A1000A7EEB3E09150A040B040E1F7D0CE8C2F8C
:104A20008F7183CFC631BCE7DB0729F58091A605DE
:104A30008A7A91E009F490E09093080469E2811188
:104A400065E38EEF93E00E94EE070E94F5106DCBB8
:104A5000C631ECE7DE0709F4E2CC8091A60582724C
:104A6000FE01E052F847E531F10508F07BCDE3594E
:104A7000FB4C0C94F82FC330FCE7DF0709F461CD41
:104A800050F4C1153CE7D30709F43FCDC130DC47F2
:104A900009F45DCD67CDCB359CE7D90709F4B7CDD7
:104AA000CC35ACE7DA0709F454CDCA35DC4709F058
:104AB00059CD81E055CDCF93DF9380913004807F35
:104AC00009F04DC080912F04882309F448C0E0917B
:104AD00006065091CD05C0912B04D0912A04609117
:104AE0002C0470912D0447E05E17C9F18E2F90E0E1
:104AF000E49FF0011124E253FA4F2481222391F123
:104B0000489FF001499FF00D1124DF01A253BA4FD5
:104B100011962C9111972C1325C02C912D1322C086
:104B200015962C91159721111DC012962D913C912F
:104B3000261B370B283C3105A8F4809130048F7078
:104B4000806180933004EC52FA4F80818F708061D5
:104B500080838AE294E00E942C1F0E94940BDF91D4
:104B6000CF910895FC013196E770BECFA4E1B0E08B
:104B7000ECEBF5E20C94A72F8C0186E0F801DE0146
:104B80001F9601900D928A95E1F7F8018481E580E6
:104B90009AE2A92E94E0B92E90912E04911128C08A
:104BA000882319F1EE20F1F0C8010E94940CF82E30
:104BB0008823C1F087E0F801D50101900D928A9514
:104BC000E1F780912E04813031F480912A04909194
:104BD0002B040E94D20B0E945B258F2D6496ECE083
:104BE0000C94C32FC8010E942C1FFF24F394F5CF0F
:104BF000D080C18082809380F0902F0420912C047B
:104C000030912D04A401421B530BFF2009F4D9C09D
:104C1000483C510508F092C08823F9F290912B048A
:104C200080913004282F207F09F056C0C91214C08B
:104C300090912A04D91210C0E11048C08F70806191
:104C4000809330048AE294E00E942C1F809130040B
:104C5000F8018683F12CC1CFE11038C06C2D8D2D69
:104C60000E944C066C2D8D2D0E944C06E82E811161
:104C7000F1CFDF86C88A8F8598890E94D20B292FB1
:104C800022952F70243058F49F70223088F0992399
:104C900099F0F8019681907F79F4FE2C9ECF2A5FDF
:104CA0002F70223068F0C8010E942C1FEF2CF5CF26
:104CB000992311F0882389F3805E883070F3F3CF55
:104CC000803F58F3815F833070F7E7CF80913004E5
:104CD000816080933004BECFC91207C090912A042E
:104CE000D91203C0EE2009F48DC0C8010E94940CB3
:104CF000882309F477CFEE2009F474CF8091300433
:104D0000803288F020912A0430912B04398728873B
:104D10009B868A8690912E049C871D868E87CE0165
:104D200008960E942C1F87E0F801AAE2B4E00190E7
:104D30000D928A95E1F70E945B2557CF9091300440
:104D4000292F207F51F48AE294E00E942C1F87E0F3
:104D5000F50111928A95E9F77DCF882309F43DCFBB
:104D600080912B048C1110C080912A04D8120CC0A1
:104D7000E1100AC09683C8010E942C1F87E0F5014C
:104D800011928A95E9F729CFC8010E94940C8823D3
:104D900009F428CFEE2009F425CF80913004803229
:104DA00010F220912A0430912B043A8329839C82AB
:104DB0008B8290912E049D831E828F83CE0101965B
:104DC000B0CF483C5105D0F6882309F40ECFFE2C15
:104DD000EE2009F407CF80912B048C1120C0809124
:104DE0002A04D8121CC08091300480FD0FC0982F77
:104DF000907F61F08683903F31F0982F907F905F95
:104E00008F70892B8683C8010E942C1F87E0F801D0
:104E1000AAE2B4E001900D928A95E1F7DECEC801D6
:104E20000E94940C81117FCF809130048160809327
:104E30003004C8010E942C1FD0CEABE1B0E0E3E209
:104E4000F7E20C94B02F4E8B5F8B688F798F8A8F2F
:104E50009B8F91111092A5051D8A86E0FE01769622
:104E6000DE011F9601900D928A95E1F78B898823C8
:104E700029F061E0CE010F960E94B70C87E0FE0199
:104E80003F96DE01189601900D928A95E1F7CE01CA
:104E900008960E94B62581112AC087E0FE01389647
:104EA000DE01119601900D928A95E1F78C85882399
:104EB000F1F02091CD0530E0C90101968770992766
:104EC0004091060648171906E9F097E0929FD00135
:104ED000939FB00D1124A253BA4FFE013196019059
:104EE0000D929A95E1F78093CD050E94940B17E0FF
:104EF000809106069091CD05891312C06B96E3E070
:104F00000C94CC2F0E9430111092CD051092060601
:104F100087E0EAE2F4E0DF011D928A95E9F7E7CF46
:104F2000819FC001112482539A4F0E94B625882385
:104F300029F38091060690E0019687709927809367
:104F40000606D6CFA6E0B0E0E8EAF7E20C94AF2F71
:104F50000E947D1C8C0180913D0490913E0480173D
:104F6000910781F019821A820E947D1C682F498165
:104F70005A81792F80E090E00E941D2710933E0413
:104F800000933D042696E4E00C94CB2F1F921FB6AD
:104F90001F9211248F939F93AF93BF938091B1057C
:104FA000811113C08091B2059091B305A091B40511
:104FB000B091B5054196A11DB11D8093B2059093A6
:104FC000B305A093B405B093B505BF91AF919F9180
:104FD0008F911F901FBE1F901895CDB7DEB72897F1
:104FE0000FB6F894DEBF0FBECDBF85B7806885BF12
:104FF00085B7806885BF84B7877F84BF0FB6F89474
:10500000A895809160008861809360001092600094
:105010000FBE80E890E00FB6F89480936100909303
:1050200061000FBE85E299E09093FD038093FC033D
:105030000E9482060E9423078091E2008460809390
:10504000E20078948091C3058823A1F01091E900D3
:105050001F709091EC00892F817090FD80E8182BD3
:105060001092E9008091E80083FD0E9446111F70B4
:105070001093E90082E084BD93E095BD9AEF97BD5F
:1050800080936E0010927104109272041092730457
:10509000109274048091D80080618093D8002AE136
:1050A0002A95F1F700C08091D900182F117080FD6A
:1050B00004C00E9482061092C3051093A9051093A4
:1050C000AA0510935C01112309F491C11092EC021E
:1050D00088E08093ED020E942B2E80915C018091EC
:1050E0005C0195E0811190E09093800485E0891B3C
:1050F00080937F040EEB13E053ECE52E53E0F52E86
:10510000D8018D918D018F3F11F00E942709E01683
:10511000F106B1F703EC13E0F80181918F018F3FA5
:1051200011F00E942709F3E0093C1F07A9F78AE064
:10513000E4E8F4E0DF01282F1D922A95E9F7E5E77E
:10514000F4E0DF011D928A95E9F790E080E00E948B
:105150007F33863E9E4F11F00E94A61A82E090E0B7
:105160000E94713380938E0484E090E00E947F332C
:10517000909382048093810483E090E00E947133D5
:1051800090E00E948F0C8091A905811136C182E0C8
:105190008093060580E880930A060E94E52C6BE068
:1051A00070E089E593E00E94AF168823E9F18091D1
:1051B000060565E070E081FD22C184E593E00E9470
:1051C000AF16882389F16DE070E082E493E00E94DD
:1051D000AF16882349F10E94E207605A75418F4F4C
:1051E0009F4F60939F057093A0058093A1059093B6
:1051F000A205EDE0F6E080E092E0DF019C011D9267
:1052000021503040E1F7F0931408E09313088FEF3A
:105210009FEF90930C0680930B0681E08093A4058A
:105220008093A305109207058091830481117CC0AF
:1052300090E080E00E947F33863E9E4F21F00E94E6
:10524000A61A0E94301988E090E00E9479334B0141
:105250005C0184E290E00E947133282F30E040E04E
:1052600050E060E070E080E090E000E20E940D30ED
:10527000282939294A295B292093970530939805D5
:105280004093990550939A0560939B0570939C05F4
:1052900080939D0590939E05809113058360809374
:1052A00013052C7F89F50E94301988E090E00E9458
:1052B00079336B017C0184E290E00E947133282FE6
:1052C00030E040E050E060E070E080E090E00E947C
:1052D0000D30B22FA32FF42FE52F5B01970186012C
:1052E000BC29A12BFE29E32BB0939705A093980529
:1052F000F0939905E0939A0560939B05B0929C0505
:1053000080939D0590939E050E9476080E946F08E9
:105310008091970580FF05C060E0869586950E9484
:105320000D1D81E0809383048091A905811102C045
:105330000E942E2E0E9418198DE591E09093AE05E3
:105340008093AD058091C30512E1853009F494C0C6
:105350000E947F1D3FE8E32E34E0F32E44E8C42E84
:1053600044E0D42ED601F70191918D9134E0E939D2
:10537000F30709F48BC09817B9F38090A90510E0E2
:1053800077247394D6010D916D01F70191907F01FF
:10539000901629F1B12CAA24A3949026892D8A2154
:1053A000B1F08820A1F0B9821A830E947D1C9C83F1
:1053B0008B837D8291E08A2D802309F490E09E8387
:1053C00049815A816B817C818D810E941D27B39414
:1053D000AA0CF6E0BF12E2CFF701319700831F5FFE
:1053E0001A3081F60E943E09DD24D39454C088E02F
:1053F0008093EC028093ED0270CE80E0C9CE8FE402
:1054000093E0DDCE8091C305843031F10E94D9163E
:105410001092B10588E190E0A0E40FB6F894A89549
:10542000809360000FBEA093600083B7817F84608B
:1054300083BF83B7816083BF7894889583B78E7F5D
:1054400083BF0FB6F894A89580916000886180931F
:105450006000109260000FBE8091C205882361F049
:105460000E947F1DE4E8F4E08191811197C22EE84B
:1054700034E02E173F07C1F78091C305853009F44A
:10548000C1CF0E9430110E94520862CF981375CF8D
:105490000E94A227D12C8091A905882309F10091AF
:1054A000A7051091A80501151105D1F08091990467
:1054B00090919A040E946E1C893C910588F0C80165
:1054C000992724E0880F991F2A95E1F7FC01E459F8
:1054D000FE4F208122FD04C089599E4F0E94261450
:1054E00080911205882309F465C080911105E0912F
:1054F0009705E695E695E81BE0930D05823009F0E7
:10550000B1C0F0E0ED58FC4FE4910E2F10E09FE2A7
:10551000E92E90E1F92E80910E05882361F010921A
:105520000E050E94E61C90930C0580930B051092CB
:10553000100510920F050E94E61CE0910B05F091FA
:105540000C059C012E1B3F0B2F3F3F4798F52091E8
:105550009E042223B1F010929E0420919C0430916D
:105560009D04821B930B8F3F9F4758F4205D3A4860
:1055700030939D0420939C04809113058860809350
:105580001305A0900F05B0901005E00FF11FF093E8
:105590000C05E0930B058BE095E0F70109958091F0
:1055A0000F0590911005892B29F4AB2819F081E0A3
:1055B00080939E0480919B04882369F010929B0441
:1055C00080911205811107C08091970560E0869552
:1055D00086950E940D1D8091A405882309F4E7C0DB
:1055E00080910805909109050E946E1CC29708F4ED
:1055F000BFC00E947D1C90930905809308058DE033
:1056000096E090931408809313088091A90588234D
:1056100009F4DFC08091B7049091B80484309105FB
:1056200009F4D4C008F07FC0009709F486C06CE18B
:1056300073E08230910509F482C09F938F9387E3D2
:1056400093E09F938F931F9288E18F938FE994E06B
:105650009F938F930E94D2300FB6F894DEBF0FBE97
:10566000CDBF71C0863059F4F0E0E059FC4FE491B1
:105670000E2F10E08FE1E82E80E1F82E4CCF89301C
:1056800061F4E695F0E0E359FC4FE4910E2F10E051
:10569000B1EBEB2EBFE0FB2E3ECF8F3061F4E695F1
:1056A000F0E0E659FC4FE4910E2F10E0ABE2EA2E59
:1056B000AFE0FA2E30CF853159F4F0E0E959FC4FD4
:1056C000E4910E2F10E0F6EAEF2EFEE0FF2E23CF3E
:1056D00008E210E074E2E72E7EE0F72E883109F44C
:1056E0001ACF04EF11E067EEE62E6DE0F62E83325E
:1056F00009F411CF00ED17E05CEDE52E57E0F52E33
:10570000843209F008CF8E2F63E00E94D82FE92F52
:10571000F0E0EC59FC4FE4910E2F10E0ECE1EE2E9E
:10572000E7E1FE2EF8CE8830910521F08E3091050C
:1057300009F083CF69E273E002C063E073E08FE9B0
:1057400094E00E94CB308FE994E00E94971681E0AC
:105750000E94C31089EB94E00E94971681E00E949A
:10576000C31081ED94E00E94971681E00E94C3105F
:1057700080910B0690910C06892B81F58091A305F1
:105780008823A9F00E94E20700919F051091A005CF
:105790002091A1053091A205601B710B820B930B28
:1057A0006F3F7F4F8F4F9F4710F40E94D916D11043
:1057B0000E94F4160E94520890910A05891709F474
:1057C000C1CD80930A050E94E207BCCD6FE073E073
:1057D000B6CF87E992E00E949716CACF8091A405C0
:1057E000882361F2809107058111C8CF0E94F416C9
:1057F00020910B0630910C062115310509F4BECF1E
:1058000080E041E050E0082F10E07A01082E02C04D
:10581000EE0CFF1C0A94E2F7B70162237323672B97
:1058200011F48F5FF0CF9091060590FF9EC0880F16
:10583000880F880F8093D9021092DC02895F8093D1
:10584000DA0283E08093DD0224E630E047E050E0B6
:1058500067ED72E088E70E94852D892B09F08ECFD5
:10586000A80125E0440F551F2A95E1F78091060510
:1058700080FF8DC0E6EEF4E080E2DF011D928A95A4
:10588000E9F7EDECF3E0F887EF8309EC13E081ED45
:10589000282E83E0382E97E0992E88248394AF81B8
:1058A000B8852D91B887AF83F80141908F01440EE0
:1058B000552E511CC201835F994F2C01E22FF0E05D
:1058C000EA51FB4F30E020E0692C621AC82C022E0E
:1058D00001C0CC0C0A94EAF7520190E0D5018D91F9
:1058E0005D018C21662D691B6770762E062E000CDB
:1058F000770BB82F01C0BB0F7A94EAF77B2E719516
:10590000619571096770772701C086956A95EAF7F6
:10591000782A8081782A70829F5F9830F9F62F5F0D
:105920003F4F31962830310579F6EF81F8852E16F4
:105930003F0609F0B4CF04E610E020E230E046EE86
:1059400054E060E488E70E94A62D892B09F016CF69
:10595000E094F09480910B0690910C06E822F922D5
:10596000F0920C06E0920B0609CF8295880F8076A4
:105970008093D902980136952795369527952093DF
:10598000DC02815E8093DA022093DD025DCF435F0B
:10599000594F04E610E020E230E0D3CF20E129BDEA
:1059A00019BD09B400FEFDCF8091D8008F7D809392
:1059B000D8008091E00082608093E0008091E00058
:1059C00081FDFCCF0E94301157CD1092B9008CE0C0
:1059D0008093B8000895B0E0A0E0E1EFFCE20C9401
:1059E000A82FB82EEB010E947D1C6C01EE24E394DD
:1059F000F12CC431D10560F025E0E22EF12CCF3F2F
:105A0000DC0731F0CE0164E170E00E948D2F7B0154
:105A100084EAA82E94E8992E1092BC00A092BC00B3
:105A20000E947D1C8C018091BC0087FF0DC080917D
:105A3000B900887F8830F9F08091B900887F803183
:105A4000D1F00FEF1FEF08C0C8010E946E1CE816CE
:105A5000F90648F70EEF1FEFCF3FDC07E9F2C6016A
:105A60000E946E1CC817D907B8F6C801CDB7DEB7BB
:105A7000EBE00C94C42FB092BB009092BC000E944B
:105A80007D1C8C018091BC0087FF0AC08091B90009
:105A9000887F883111F08034A1F610E000E0E5CF76
:105AA000C8010E946E1CE816F90660F7D3CF0F9369
:105AB0001F93CF93DF93EB018093BB0084E8809327
:105AC000BC000E947D1C8C018091BC0087FF11C02E
:105AD0002091B900287F81E090E0283211F490E015
